:020000040800F2
:1000000028070020AD4300086302000865020008CD
:10001000690200086D02000871020008000000007B
:100020000000000000000000000000007502000851
:100030007702000800000000790200084310000861
:10004000C7430008C7430008C7430008C743000868
:10005000C7430008C7430008C7430008C743000858
:10006000C7430008C7430008C7430008C743000848
:10007000C7430008C7430008C7430008C743000838
:10008000C7430008C7430008C7430008C743000828
:10009000C7430008C7430008C7430008C743000818
:1000A000C7430008C7430008C7430008C743000808
:1000B000C7430008C7430008C7430008C7430008F8
:1000C000C7430008C7430008C7430008C7430008E8
:1000D000C7430008C7430008C10E00086F060008A8
:1000E000C7430008C7430008C7430008C7430008C8
:1000F000C7430008C7430008C7430008C7430008B8
:10010000C7430008C7430008C7430008C7430008A7
:10011000C7430008650F0008C7430008C74300082D
:10012000C7430008C7430008C7430008C743000887
:10013000C7430008C7430008C7430008C743000877
:10014000C7430008C7430008C7430008C743000867
:10015000C7430008C7430008C7430008C743000857
:10016000C7430008C7430008C7430008C743000847
:10017000C7430008C7430008C7430008C743000837
:10018000C7430008C743000800F002F800F03CF83D
:100190000AA090E8000C82448344AAF10107DA45E2
:1001A00001D100F031F8AFF2090EBAE80F0013F0F8
:1001B000010F18BFFB1A43F0010318477C5D0000D4
:1001C0009C5D0000103A24BF78C878C1FAD8520765
:1001D00024BF30C830C144BF04680C6070470000C1
:1001E0000023002400250026103A28BF78C1FBD840
:1001F000520728BF30C148BF0B6070471FB505F0DC
:1002000096FE1FBD10B510BD05F057FE1146FFF755
:10021000F5FF00F008F805F075FE03B4FFF7F2FFF4
:1002200003BC05F07DFE4FF4A06004F0DFF801F0A0
:1002300090F900F0D3FA00F0D7FE00F002FF00F0D2
:1002400083FA00F0F0FD00F090FD00F04EF900F0B0
:10025000A7F941F2883000F05EFB03F047FE00BFD3
:10026000FEE7704700BFFEE700BFFEE700BFFEE706
:1002700000BFFEE770477047704700000CB50020D4
:10028000019000907648006840F48030744908601E
:1002900000BF7348006800F4003000900198401CD3
:1002A0000190009818B90198B0F5A04FF1D16C48B1
:1002B000006800F4003010B10120009001E000203F
:1002C00000900098012846D165484030006840F011
:1002D00080506349403108606248006840F4404003
:1002E000604908605E48083000685D490831086070
:1002F0000846006840F4004008600846006840F482
:10030000A05008605848091F0860081F006840F0A6
:100310008070091F086000BF5148006800F000703D
:100320000028F9D040F20570504908604C48083068
:10033000006820F003004A49083108600846006858
:1003400040F00200086000BF45480830006800F037
:100350000C000828F8D10CBD10B54548006840F4E1
:100360007000434908603E48006840F001003C4985
:10037000086000203A4908310860394800683D4962
:100380000840374908603C48091D0860081F00689C
:1003900020F48020091F0860002031490C310860DA
:1003A000FFF76CFF4FF0006031498039086010BDE5
:1003B00070B500200022022300240221284D0835B8
:1003C0002D6805F00C0020B1042806D0082834D18F
:1003D00007E02A4D2A4E356033E02A4D284E35601D
:1003E0002FE01F4D2D1D2D68C5F380541C4D2D1D74
:1003F0002D6805F03F0154B1224DB5FBF1F5184EC3
:10040000361D3668C6F3881605FB06F209E01B4D5B
:10041000B5FBF1F5124E361D3668C6F3881605FB9E
:1004200006F20F4D2D1D2D68C5F301456D1C6B00A7
:10043000B2FBF3F5124E356003E0104D104E3560FF
:1004400000BF00BF064D08352D68C5F303150E4EDD
:10045000705D0B4D2D68C540094E356070BD0000C4
:10046000003802400070004008544007003C024041
:1004700088ED00E0FFFFF6FE103000240024F400B9
:100480002C00002000127A003000002010B5044635
:100490002146A04804F07EFA00BF80219D4804F068
:1004A00029FB0028F9D010BD70B50446002504E0F2
:1004B000605DFFF7EBFF681CC5B2605D0028F7D1F7
:1004C00070BD70B505460E46002404E0285DFFF7B8
:1004D000DDFF601C84B2B442F8DB00BF40218D48D0
:1004E00004F008FB0028F9D070BD00B587B00121E9
:1004F000042005F08BFB0121880405F0D0FB4FF4AC
:100500004060059002208DF8180003208DF8190036
:1005100000208DF81A0001208DF81B0005A97E48E7
:1005200004F05AF807220B217B4804F0E0F8072278
:100530000A21794804F0DBF84FF4E1300190002003
:10054000ADF80800ADF80A00ADF80C000C20ADF8CD
:100550000E000020ADF8100001A96E4804F067F904
:10056000012240F225516B4804F09FFA27208DF8B4
:10057000000002208DF801008DF8020001208DF8A6
:100580000300684603F037FF0121624804F0D7F901
:1005900007B000BD10B505216048FFF792FF10BD00
:1005A00010B505215E48FFF78CFF10BD30B503463E
:1005B00014460022002004E01D5C1544EAB2451CEC
:1005C000A8B28842F8DB104630BD70B504460D462F
:1005D0000B2D4AD16278681E81B22046FFF7E6FFF4
:1005E0000646681E205CB04200D070BD20785528B9
:1005F0001CD16078532819D1A079E17940EA012211
:1006000012B200EE102AF8EEC01A9FED462A81EED3
:10061000821ADFED451A21EE211AF0EE410A434A13
:10062000C2ED000A0122424B1A701DE020785528C5
:100630001AD16078522817D1A079E17940EA0122D5
:1006400012B200EE102AB8EEC01ADFED361AC1EE73
:10065000210A9FED381A60EE810A374AC2ED000A7E
:100660000122334B1A7000BF00BF00BFBDE710B5B9
:1006700040F22551274804F053FA002849D0254874
:1006800004F08CF9C4B22D48007848B9552C3AD101
:100690002B48047001202B4908702849087032E06B
:1006A0002648007801282ED1264801780078401C81
:1006B000244A10702248445410460078022815D16C
:1006C0001F484078532811D01D48407852280DD03B
:1006D0001B484078552803D101201146087012E0CC
:1006E000002016490870174908700CE0154800787A
:1006F0000B2808D10B211248FFF767FF0020114992
:1007000008700E49087040F22551024804F043FA7F
:1007100000BF10BD0048004000080240400000201B
:100720004500002000000047000034432000002066
:10073000100000200000FA44140000204B000020AC
:10074000B10000204A00002000B58BB001214020FC
:1007500005F0A5FA0121022005F058FA02208DF8D3
:1007600028004003099003208DF8290000208DF80F
:100770002A0001208DF82B0009A9FB4803F02CFF6B
:1007800009220E21F84803F0B2FF49F63F400790D6
:100790002920ADF818000020ADF82000ADF81A00AF
:1007A00006A9F24804F0B3FA6020ADF80400012075
:1007B000ADF8060000200390ADF81000ADF814006D
:1007C00001A9EA4804F038FB0821E84804F0C1FC1C
:1007D0000121E64804F024FB0BB000BD00B58BB04E
:1007E0000121022005F06CFA0121042005F00EFA27
:1007F00002208DF828004FF47070099003208DF8C6
:10080000290000208DF82A0001208DF82B0009A96D
:10081000D74803F0E1FE03220621D54803F067FF25
:1008200003220721D24803F062FF03220821D048A7
:1008300003F05DFF03220921CD4803F058FF49F67C
:100840003F4007905320ADF818000020ADF820007D
:10085000ADF81A0006A9C74804F059FA6020ADF8AF
:1008600004000120ADF806000020039001A9C14852
:1008700004F0E2FA0020039001A9BE4804F015FB41
:100880000020039001A9BB4804F05CFB002003900A
:1008900001A9B84804F0BCFB0020ADF81000ADF889
:1008A00014000821B34804F054FC0821B14804F0B6
:1008B00059FC0821AF4804F062FC0821AD4804F05F
:1008C00067FC0121AB4804F09CFE0121A94804F01B
:1008D000A7FA0BB000BDB0F57A7F01DA4FF47A7059
:1008E00041F28831884200DD0846A249343108606F
:1008F0007047B0F57A7F01DA4FF47A7041F28831AF
:10090000884200DD08469B493831086070479949A4
:100910003C310860704797494031086070479349FF
:1009200034310860704710B54FF47A70FFF7F7FF65
:1009300040F61C40FFF7CFFF40F24C40FFF7D9FFD5
:100940004FF4967003F01AFD4FF41660FFF7DFFFC7
:10095000012003F01FFD40F6AC50FFF7D8FF012047
:1009600003F018FD4FF47A60FFF7B5FF4FF42F60E6
:10097000FFF7BFFF40F24C4003F000FD40F6980047
:10098000FFF7C5FF012003F005FD10BD10B540F6CF
:100990002230FFF7C4FF40F61C40FFF79CFF40F2F7
:1009A0004C40FFF7A6FF4FF4FA7003F0E7FC40F667
:1009B0009800FFF7ACFF012003F0ECFC4FF4486017
:1009C000FFF7A5FF012003F0E5FC4FF47A60FFF785
:1009D00082FF4FF42F60FFF78CFF40F24C4003F092
:1009E000CDFC40F69800FFF792FF012003F0D2FC07
:1009F00010BD10B541F2FC10FFF791FF40F61C400E
:100A0000FFF769FF40F24C40FFF773FF4FF4FA70B5
:100A100003F0B4FC40F69800FFF779FF012003F0E3
:100A2000B9FC40F6AC50FFF772FF012003F0B2FCB6
:100A30004FF47A60FFF74FFF4FF42F60FFF759FF35
:100A400040F24C4003F09AFC40F6C410FFF75FFF01
:100A5000012003F09FFC40F61C40FFF73CFF40F2F2
:100A60004C40FFF746FF4FF47A70FFF758FF4FF402
:100A7000FA6003F083FC4FF47A60FFF72CFF40F636
:100A80005430FFF736FF40F6C41003F077FC10BD7A
:100A900010B540F6AC50FFF73AFF4FF4FA7003F090
:100AA0006DFC40F63400FFF716FF40F63400FFF708
:100AB00020FF40F6D920FFF732FF40F2DC5003F070
:100AC0005DFC4FF42F60FFF722FF4FF4FA7003F044
:100AD00055FC40F6C410FFF71AFF4FF47A60FFF799
:100AE000FAFE40F65430FFF704FF40F2DC5003F00A
:100AF00045FC40F6AC50FFF70AFF10BD10B540F6BC
:100B0000AC50FFF704FF4FF4FA7003F037FC40F6E7
:100B10003400FFF7E0FE40F63400FFF7EAFE41F252
:100B2000CA10FFF7FCFE40F2DC5003F027FC4FF444
:100B30002F60FFF7ECFE4FF4FA7003F01FFC40F655
:100B4000C410FFF7E4FE4FF47A60FFF7C4FE40F6EE
:100B50005430FFF7CEFE40F2DC5003F00FFC40F6BD
:100B6000AC50FFF7D4FE10BD000402400018004056
:100B7000000802400004014010B540F6AC50FFF7F9
:100B8000C6FE4FF47A7003F0F9FB40F63400FFF72D
:100B9000A2FE40F63400FFF7ACFE4FF4FA6003F01B
:100BA000EDFB40F6C410FFF7B2FE4FF4FA6003F01D
:100BB000E5FB4FF47A60FFF78EFE40F65430FFF706
:100BC00098FE40F2DC5003F0D9FB4FF47A70FFF747
:100BD000A6FE10BD10B540F63400FFF77CFE4FF4C2
:100BE000FA60FFF786FE4FF42F7003F0C7FB40F664
:100BF000C410FFF78CFE012003F0CCFB40F6AC5094
:100C0000FFF785FE40F2DC5003F0B8FB4FF47A604A
:100C1000FFF761FE40F65430FFF76BFE022003F051
:100C2000B9FB4FF4FA60FFF772FE012003F0B2FB4C
:100C300010BD10B540F63400FFF74DFE4FF4FA60DA
:100C4000FFF757FE012003F0A5FB40F69800FFF7E1
:100C50005EFE012003F09EFB40F63D30FFF75FFE95
:100C600040F6AC50FFF753FE012003F093FB4FF426
:100C70007A60FFF730FE40F65430FFF73AFE02206C
:100C800003F088FB40F69800FFF741FE012003F0D7
:100C900081FB10BD10B540F63400FFF71CFE4FF489
:100CA000FA60FFF726FE012003F074FB40F698007F
:100CB000FFF72DFE012003F06DFB41F2FC10FFF762
:100CC0002EFE40F6AC50FFF722FE012003F062FB3F
:100CD0004FF47A60FFF7FFFD40F65430FFF709FE4E
:100CE000022003F057FB40F69800FFF710FE0120AA
:100CF00003F050FB40F63400FFF7EDFD4FF4FA60CF
:100D0000FFF7F7FD40F2DC5003F038FB4FF47A7048
:100D1000FFF705FE012003F03DFB4FF47A60FFF77B
:100D2000DAFD40F65430FFF7E4FD40F6C410FFF75B
:100D3000EEFD10BD10B5044621469E4803F02AFE84
:100D400000BF80219B4803F0D5FE0028F9D010BDDC
:100D500070B505460E46002404E0285DFFF7EAFF63
:100D6000601C84B2B442F8DB70BD00B587B00121CD
:100D7000480404F094FF0121084604F047FF0420D2
:100D8000059002208DF818008DF8190000208DF8CC
:100D90001A0001208DF81B0005A9874803F01CFCF0
:100DA0000820059002208DF8180000208DF81B0007
:100DB00005A9814803F010FC072202217E4803F0B8
:100DC00096FC072203217C4803F091FC4FF4E130AC
:100DD00001900020ADF80800ADF80A00ADF80C0055
:100DE000ADF810000C20ADF80E0001A9714803F019
:100DF0001EFD01216F4803F0A2FD012240F22551A2
:100E00006C4803F052FE26208DF8000000208DF87B
:100E100001008DF8020001208DF80300684603F000
:100E2000EAFA07B000BD00B587B00121080504F05B
:100E300036FF0121082004F0E9FE0420059002207D
:100E40008DF8180003208DF8190000208DF81A0085
:100E500001208DF81B0005A9584803F0BDFB0822AE
:100E60000221564803F043FC4FF4E130019000208A
:100E7000ADF80800ADF80A00ADF80C00ADF81000B0
:100E80000420ADF80E0001A94D4803F0D0FC01226A
:100E900040F225514A4803F008FE0121484803F07A
:100EA0004EFD35208DF8000001208DF801008DF8F1
:100EB00002008DF80300684603F09DFA07B000BDFC
:100EC00010B540F225513B4803F02AFE002848D0D7
:100ED000384803F063FDC4B23A48007848B92C2C76
:100EE00039D13948047001203849088035490870E3
:100EF00031E03448007801282DD134480088062894
:100F000007DA324801880088401C304A10802E4899
:100F100044542E48008806281DD12B4840795B2870
:100F200014D1294880782849497840EA012000B244
:100F300027490880244800792349C97840EA0120DC
:100F400000B22449088001202349087000201F496D
:100F500008801C49087040F22551164803F01BFE1A
:100F600000BF10BD10B540F22551154803F0D8FD63
:100F7000F8B1134803F012FDC4B21848007890B9D4
:100F8000174801780078401C154A107015484454E1
:100F900000782C2807D11348007A5B2803D1092157
:100FA0001048FFF7D5FE40F22551054803F0F3FD48
:100FB00000BF10BD0044004000000240000C024091
:100FC0000050004050000020050000204E0000208E
:100FD0000000002002000020040000205200002039
:100FE00051000020A800002030B5FC4800684FF4F4
:100FF0007A72B0FBF2F1481EB0F1807F01D301207C
:101000001BE0481E4FF0E022506150170F220028CD
:1010100007DA13071D0EF24B00F00F04241F1D55B5
:1010200003E013071C0EEF4B1C5400BF00204FF0D1
:10103000E022906107201061002008B100BFFEE7A8
:1010400030BDE9480068401CE74908607047E64841
:101050000068704730B58BB005460C460121480446
:1010600004F02EFE0121022004F0D0FD032208210D
:10107000DE4803F03CFB4FF48070099002208DF8AD
:10108000280003208DF8290000208DF82A00012077
:101090008DF82B0009A9D54803F09EFA0795ADF805
:1010A00018400020ADF82000ADF81A0006A9D0487D
:1010B00003F02DFE6020ADF804000120ADF806001D
:1010C00000200390ADF8100001A9C94803F0B4FE58
:1010D0000821C74804F03DF80121C54803F082FE0D
:1010E0000121C34803F09CFE0BB030BD30B58BB07E
:1010F00005460C460121880404F0E2FD012102208E
:1011000004F084FD03220921B84803F0F0FA4FF4FB
:101110000070099002208DF8280003208DF8290026
:1011200000208DF82A0001208DF82B0009A9AF4876
:1011300003F052FA0795ADF818400020ADF82000F2
:10114000ADF81A0006A9AB4803F0E1FD6020ADF848
:1011500004000120ADF8060000200390ADF8100057
:1011600001A9A44803F068FE0821A24803F0F1FF9A
:101170000121A04803F036FE01219E4803F050FEF5
:101180000BB030BD30B58BB005460C4601210804CC
:1011900004F096FD0121102004F038FD0322052102
:1011A000954803F0A4FA03220621934803F09FFA1E
:1011B0006020099002208DF8280003208DF8290076
:1011C00000208DF82A0001208DF82B0009A98A48FB
:1011D00003F002FA0795ADF818400020ADF82000A2
:1011E000ADF81A0006A9854803F091FD6020ADF81E
:1011F00004000120ADF8060000200390ADF81000B7
:1012000001A97E4803F018FE01A97C4803F04DFEB9
:1012100008217A4803F09DFF0821784803F0A2FFD7
:101220000121764803F0DEFD0121744803F0F8FD4A
:101230000BB030BD30B58BB005460C4601210846D9
:1012400004F03EFD0121102004F0E0FC0122092100
:10125000694803F04CFA01220B21674803F047FA72
:1012600001220D21644803F042FA01220E21624856
:1012700003F03DFA4FF4D440099002208DF8280085
:1012800003208DF8290000208DF82A0001208DF818
:101290002B0009A9584803F09FF90795ADF81840AD
:1012A0000020ADF82000ADF81A0006A9544803F05C
:1012B0002EFD6020ADF804000120ADF806000020EE
:1012C0000390ADF8100001A94D4803F0B5FD01A948
:1012D0004B4803F0EAFD01A9494803F033FE01A998
:1012E000474803F095FE0821454803F032FF0821E6
:1012F000434803F037FF0821414803F040FF08212D
:101300003F4803F045FF01213D4804F07AF90121EF
:101310003B4803F067FD0121394803F081FD0BB024
:1013200030BD384890ED000AF0EE400A364890EDA6
:10133000000A364890ED001A20EE010A344880ED8C
:10134000000A344890ED000A30EE600A324880ED21
:10135000000A90ED000A9FED311AB4EEC10AF1EED9
:1013600010FA08DD90ED000A9FED2D1A30EE410ACB
:1013700080ED000A11E0284890ED000A9FED291A3F
:10138000B4EEC10AF1EE10FA07D290ED000A9FED1B
:10139000241A30EE010A80ED000A1D4890ED000A83
:1013A000214880ED000A90ED000A204890ED001AD7
:1013B0001948D0ED001A01EE210A1D4880ED000AFF
:1013C00090ED000A1B4890ED001AB4EEC10AF1EE50
:1013D00010FA31DD90ED000A704700002C0000206B
:1013E00018ED00E000E400E060000020000402408E
:1013F000004401400048014000100240004001400C
:10140000000001402000002078000020140000208F
:101410000C00002064000020240000200000344361
:101420000000B443000034C3180000207000002006
:101430001C00002074000020F94890ED000AF948D3
:1014400090ED001AB1EE411AB4EEC10AF1EE10FAB5
:1014500004D290ED000AB1EE400A7047F04890EDDA
:10146000000AFAE7FCEEC00A10EE900AEE490860A6
:101470000020EE4908607047FCEEC00A10EE900AAA
:10148000EB494863002088637047FCEEC00A10EE09
:10149000900AE8494863002088637047FCEEC00A60
:1014A00010EE900AE349C86300200864704720B931
:1014B0000021DE4A1160DC4A1160704718B9002132
:1014C000DB4A91635163704718B90021D94A91638F
:1014D0005163704718B90021D64A1164D16370472F
:1014E000B5EEC00AF1EE10FA08DDFCEEC00A10EE0F
:1014F000900ACE4908600020CB4908607047B5EEDD
:10150000C00AF1EE10FA07DDFCEEC00A10EE900AF8
:10151000C7498863002048637047B5EEC00AF1EE02
:1015200010FA07DDFCEEC00A10EE900AC14988638C
:10153000002048637047B5EEC00AF1EE10FA07DDEF
:10154000FCEEC00A10EE900ABA4908640020C86395
:10155000704710B5002144F29F10FFF76BFE002189
:1015600044F29F10FFF70EFE002144F29F10FFF798
:1015700071FD002144F29F10FFF7B8FD10BD00B5CA
:10158000A74890ED000ADFEDAC0A30EE200AB0EE7D
:10159000401A90ED000ADFEDA80A30EEC00AF0EE26
:1015A000401A90ED000AB5EEC00AF1EE10FA10DD17
:1015B000B0EE610AFFF794FFB0EE410AFFF79FFF1C
:1015C0009FED9D0AFFF761FF9FED9B0AFFF766FF06
:1015D00017E0934890ED000AB5EEC00AF1EE10FA5C
:1015E0000FD2B0EE410AFFF77BFFB0EE610AFFF7C2
:1015F00086FF9FED910AFFF748FF9FED8F0AFFF7E7
:101600004DFF00BD00B5864890ED000ADFED8B0A66
:1016100030EE200AB0EE401A90ED000ADFED870AA6
:1016200030EEC00AF0EE401A90ED000AB5EEC00AA6
:10163000F1EE10FA10DDB0EE610AFFF751FFB0EEE7
:10164000410AFFF75CFF9FED7D0AFFF71EFF9FED4C
:101650007B0AFFF723FF17E0714890ED000AB5EE13
:10166000C00AF1EE10FA0FD2B0EE410AFFF738FFD0
:10167000B0EE610AFFF743FF9FED700AFFF705FF29
:101680009FED6E0AFFF70AFF00BD00B5644890EDBC
:10169000000ADFED6A0A30EE200AB0EE401A90ED43
:1016A000000ADFED660A30EEC00AF0EE401A90ED57
:1016B000000AB5EEC00AF1EE10FA10DDB0EE610AD4
:1016C000FFF7D0FEB0EE410AFFF7D6FE9FED5B0AB2
:1016D000FFF723FF9FED590AFFF72DFF17E0504852
:1016E00090ED000AB5EEC00AF1EE10FA0FD2B0EE9E
:1016F000410AFFF7B7FEB0EE610AFFF7BDFE9FEDAE
:101700004F0AFFF70AFF9FED4D0AFFF714FF00BDD8
:1017100000B5434890ED000ADFED470A30EE200A9D
:10172000B0EE401A90ED000ADFED430A30EEC00A39
:10173000F0EE401A90ED000AB5EEC00AF1EE10FA94
:1017400010DDB0EE610AFFF78DFEB0EE410AFFF743
:1017500093FE9FED390AFFF7E0FE9FED370AFFF792
:10176000EAFE17E02E4890ED000AB5EEC00AF1EE51
:1017700010FA0FD2B0EE410AFFF774FEB0EE610A24
:10178000FFF77AFE9FED2E0AFFF7C7FE9FED2A0AAC
:10179000FFF7D1FE00BD00B59FED2A0AFFF7A0FEBE
:1017A0009FED280AFFF768FE9FED260AFFF76DFE02
:1017B0009FED240AFFF7BFFE00BD00B59FED210A93
:1017C000FFF750FE9FED1F0AFFF799FE9FED1D0AE0
:1017D000FFF7A3FE9FED1B0AFFF760FE00BD00B5FB
:1017E0000020FFF764FE0020FFF768FE0020FFF7EF
:1017F0006BFE0020FFF76EFE00BD00B541F2707079
:10180000FFF755FE9FED100AFFF779FE9FED0E0AD8
:10181000FFF73BFE41F27070FFF75CFE00BD000079
:101820001C00002074000020344401403448014072
:10183000004001400000014000803B4600601F4620
:1018400000504346002019460080BB4500B51FEDFF
:10185000050AFFF707FE1FED070AFFF750FE1FED11
:10186000090AFFF712FE1FED0B0AFFF764FE00BD29
:1018700000B51FED0E0AFFF733FE9FEDF70AFFF7E5
:10188000FBFD1FED120AFFF748FE1FED140AFFF7DC
:1018900005FE00BD00B59FEDF10AFFF721FE9FEDAB
:1018A000F00AFFF72CFE9FEDEF0AFFF7EEFD9FED2C
:1018B000EC0AFFF7F3FD00BD00B59FEDE90AFFF765
:1018C0000FFE9FEDE90AFFF71AFE9FEDE60AFFF70C
:1018D000DCFD9FEDE30AFFF7E1FD00BD00B59FEDE4
:1018E000E00AFFF7BFFD9FEDDE0AFFF7C5FD9FEDA4
:1018F000DF0AFFF712FE9FEDDA0AFFF71CFE00BDBC
:1019000000B59FEDD70AFFF7ADFD9FEDD50AFFF7B4
:10191000B3FD9FEDD70AFFF700FE9FEDD60AFFF754
:101920000AFE00BD00B59FEDCE0AFFF79BFD9FEDBF
:10193000CC0AFFF7E4FD9FEDCA0AFFF7A6FD9FED75
:10194000C80AFFF7F8FD00BD00B59FEDC50AFFF717
:10195000C7FD9FEDC30AFFF78FFD9FEDC10AFFF79B
:10196000DCFD9FEDBF0AFFF799FD00BD00B5C24841
:101970000078002848D0C148007880BBC048008863
:1019800010B9C048008858B3BD48008898B1BC4819
:10199000B0F90000052802DDFFF7A0FF28E0B848F5
:1019A000B0F9000010F1050F02DAFFF773FF1FE036
:1019B000FFF715FF1CE0B348B0F90000052802DD71
:1019C000FFF7B0FF14E0AF48B0F9000010F1050FC9
:1019D00002DAFFF7B9FF0BE0FFF701FF08E008E0CC
:1019E000FFE7FFF7FCFEA5480078401CA3490870FC
:1019F00006E00020A14908700120A349087000BF3B
:101A000000BF00209C49087000BD00B59A480078CE
:101A1000002848D09D48007880BB9948008810B9BC
:101A20009848008858B39648008898B19448B0F90F
:101A30000000052802DDFFF751FF28E09048B0F9CB
:101A4000000010F1050F02DAFFF724FF1FE0FFF797
:101A5000C6FE1CE08B48B0F90000052802DDFFF748
:101A600061FF14E08748B0F9000010F1050F02DAB9
:101A7000FFF76AFF0BE0FFF7B2FE08E008E0FFE7C0
:101A8000FFF7ADFE81480078401C8049087006E0F1
:101A900000207E49087001207D49087000BF00BF0A
:101AA00000207549087000BD10B573480078002803
:101AB00057D07848007810B101284AD138E07048F2
:101AC000008810B96F48008850B36D48008898B1FD
:101AD0006B48B0F90000052802DDFFF7FFFE26E0A5
:101AE0006748B0F9000010F1050F02DAFFF7D2FEE7
:101AF0001DE0FFF774FE1AE06248B0F90000052807
:101B000002DDFFF70FFF12E05E48B0F9000010F1B0
:101B1000050F02DAFFF718FF09E0FFF760FE06E0A5
:101B2000FFF75DFE5B480078401C5A49087014E0DE
:101B30005348008801280BD152480088012807D15A
:101B4000FEF7A6FF00205349087001205249087093
:101B500003E000204F49087000BF00BF0020464945
:101B6000087010BD10B544480078002857D04B4885
:101B7000007810B101284AD138E04148008810B9F6
:101B80004048008850B33E48008898B13C48B0F9BE
:101B90000000052802DDFFF7A1FE26E03848B0F975
:101BA000000010F1050F02DAFFF774FE1DE0FFF7E9
:101BB00016FE1AE03348B0F90000052802DDFFF7F1
:101BC000B1FE12E02F48B0F9000010F1050F02DA63
:101BD000FFF7BAFE09E0FFF702FE06E0FFF7FFFDA0
:101BE0002E480078401C2D49087014E024480088D5
:101BF00001280BD123480088012807D1FEF77EFF7A
:101C000000202649087001202549087003E00020C3
:101C10002249087000BF00BF00201749087010BD9E
:101C200010B515480078002879D01E48007810B10A
:101C3000012876D162E01248008810B91148008866
:101C400090B30F48008880B30D48B0F90000052814
:101C50002CDDFFF743FE50E000B8214600B01A46E5
:101C6000005818460070144600401C4600781B4679
:101C700000C8164600E8194604000020880000202D
:101C800000000020020000206900002089000020E0
:101C90006A0000208A0000207D0000208B000020C8
:101CA0007E0000208C00002020E00BE0FA48B0F914
:101CB000000010F1050F02DAFFF7ECFD1DE0FFF761
:101CC0008EFD1AE0F548B0F90000052802DDFFF7A7
:101CD00029FE12E0F148B0F9000010F1050F02DA18
:101CE000FFF732FE09E0FFF77AFD06E0FFF777FD28
:101CF000EB480078401CEA49087016E0E648008886
:101D000001280BD1E5480088012807D1FEF734FFF0
:101D10000020E34908700120E249087005E008E06E
:101D2000FFE70020DE49087000BF00BF0020DE4949
:101D3000087010BD10B5DC480078002857D0DB488B
:101D4000007810B101284AD138E0D348008810B992
:101D5000D248008850B3D048008898B1CE48B0F936
:101D60000000052802DDFFF7B9FD26E0CA48B0F9FA
:101D7000000010F1050F02DAFFF78CFD1DE0FFF700
:101D80002EFD1AE0C548B0F90000052802DDFFF776
:101D9000C9FD12E0C148B0F9000010F1050F02DAE8
:101DA000FFF7D2FD09E0FFF71AFD06E0FFF717FD88
:101DB000BE480078401CBD49087014E0B648008851
:101DC00001280BD1B5480088012807D1FEF760FE35
:101DD0000020B64908700120B549087003E00020D2
:101DE000B249087000BF00BF0020AF49087010BDA5
:101DF00010B5AD480078002857D0AE48007810B133
:101E000001284AD138E0A448008810B9A3480088C6
:101E100050B3A148008898B19F48B0F90000052848
:101E200002DDFFF75BFD26E09B48B0F9000010F1F2
:101E3000050F02DAFFF72EFD1DE0FFF7D0FC1AE0D8
:101E40009648B0F90000052802DDFFF76BFD12E0AF
:101E50009248B0F9000010F1050F02DAFFF774FDA7
:101E600009E0FFF7BCFC06E0FFF7B9FC91480078F9
:101E7000401C9049087014E08748008801280BD165
:101E800086480088012807D1FEF738FE00208949DE
:101E9000087001208849087003E000208549087017
:101EA00000BF00BF00208049087010BD10B57E48FB
:101EB0000078002857D08148007810B101284AD115
:101EC00038E07548008810B97448008850B37248EB
:101ED000008898B17048B0F90000052802DDFFF7CE
:101EE000FDFC26E06C48B0F9000010F1050F02DAA5
:101EF000FFF7D0FC1DE0FFF772FC1AE06748B0F96D
:101F00000000052802DDFFF70DFD12E06348B0F97F
:101F1000000010F1050F02DAFFF716FD09E0FFF7E8
:101F20005EFC06E0FFF75BFC64480078401C6349F8
:101F3000087014E05848008801280BD157480088E1
:101F4000012807D1FEF718FE00205C490870012027
:101F50005B49087003E000205849087000BF00BFCB
:101F600000205149087010BD10B54F480078002876
:101F700057D05448007810B101284AD138E046487B
:101F8000008810B94548008850B34348008898B18C
:101F90004148B0F90000052802DDFFF79FFC26E06C
:101FA0003D48B0F9000010F1050F02DAFFF772FCAE
:101FB0001DE0FFF714FC1AE03848B0F900000528CE
:101FC00002DDFFF7AFFC12E03448B0F9000010F179
:101FD000050F02DAFFF7B8FC09E0FFF700FC06E0A6
:101FE000FFF7FDFB37480078401C3649087014E0C5
:101FF0002948008801280BD128480088012807D1EA
:10200000FEF7E8FD00202F49087001202E490870D6
:1020100003E000202B49087000BF00BF00202249C8
:10202000087010BD10B520480078002874D02748EB
:10203000007810B1012867D155E01748008810B921
:102040001648008838B31448008898B11248B0F98F
:102050000000052802DDFFF741FC43E00E48B0F91F
:10206000000010F1050F02DAFFF714FC3AE0FFF769
:10207000B6FB37E00948B0F90000052802DDFFF79C
:1020800051FC2FE00548B0F9000010F1050F1FDAF0
:10209000FFF75AFC26E01EE00000002002000020AE
:1020A0008C0000207F000020040000208D00002014
:1020B000840000208E000020850000208F0000207A
:1020C0008600002090000020810000209100002068
:1020D000FFF785FB06E0FFF782FBF6480078401C1F
:1020E000F449087014E0F448008801280BD1F34843
:1020F0000088012807D1FEF79CFD0020ED490870FB
:102100000120EF49087003E00020EA49087000BF91
:1021100000BF0020EB49087010BD10B5E9480078F9
:10212000002857D0E848007810B101284AD138E09B
:10213000E148008810B9E148008850B3DE480088C3
:1021400098B1DD48B0F90000052802DDFFF7C6FBB5
:1021500026E0D948B0F9000010F1050F02DAFFF7C8
:1021600099FB1DE0FFF73BFB1AE0D448B0F90000F3
:10217000052802DDFFF7D6FB12E0D048B0F90000D9
:1021800010F1050F02DAFFF7DFFB09E0FFF727FB8D
:1021900006E0FFF724FBCC480078401CCA490870D1
:1021A00014E0C548008801280BD1C44800880128E4
:1021B00007D1FEF76FFD0020C34908700120C34915
:1021C000087003E00020C049087000BF00BF002075
:1021D000BC49087010BD10B55EE0BA480078002810
:1021E0005AD0B548008828B9B448008810B9FFF71C
:1021F000F6FA4EE0B048008810B9B048008880B3C5
:10220000AD480088012830D0AC48008801282CD087
:10221000A948008890B1A848B0F90000012802DD63
:10222000FFF75CFB35E0A448B0F90000002802DAB3
:10223000FFF730FB2DE0FFF7D2FA2AE09F48008835
:1022400038B39E48B0F90000012802DDFFF76AFBB1
:102250001FE09A48B0F90000002803DAFFF774FB8A
:1022600017E002E0FFF7BBFA13E09348008801286B
:102270000ED19248008801280AD141F28830FEF739
:102280004AFB022002F086F84FF47A60FEF743FB27
:1022900003E000208B4908709FE700BF10BD10B518
:1022A0005EE08848007800285AD08348008828B922
:1022B0008248008810B9FFF792FA4EE07E48008805
:1022C00010B97E48008880B37B480088012830D050
:1022D0007A48008801282CD07748008890B1764849
:1022E000B0F90000012802DDFFF7F8FA35E0724886
:1022F000B0F90000002802DAFFF7CCFA2DE0FFF772
:102300006EFA2AE06D48008838B36C48B0F90000D6
:10231000012802DDFFF706FB1FE06848B0F9000066
:10232000002803DAFFF710FB17E002E0FFF757FA87
:1023300013E06148008801280ED160480088012818
:102340000AD141F28830FEF7E6FA022002F022F8C4
:102350004FF47A60FEF7DFFA03E000205949087075
:102360009FE700BF10BD10B55648007800286BD01D
:102370005748007830B101283DD002284BD00328BF
:102380005AD150E04C48008810B94C48008850B3EE
:102390004948008898B14848B0F90000052802DD96
:1023A000FFF79CFA26E04448B0F9000010F1050F51
:1023B00002DAFFF76FFA1DE0FFF711FA1AE03F4863
:1023C000B0F90000052802DDFFF7ACFA12E03B4847
:1023D000B0F9000010F1050F02DAFFF7B5FA09E0D5
:1023E000FFF7FDF906E0FFF7FAF939480078401CDD
:1023F0003749087024E03048008801280AD12F4866
:102400000088012806D1FEF78EFA31480078401C7A
:102410002F49087014E0FEF7B9FA2D480078401CE7
:102420002B4908700CE0FEF7E4FA012029490870F6
:1024300000202749087003E000202549087000BFEC
:1024400000BF00201F49087010BD10B51D4800785E
:1024500000286FD02048007830B1012852D00228DF
:1024600060D0032871D167E01348008810B9134881
:102470000088F0B11048008898B10F48B0F900000A
:10248000052802DDFFF72AFA3BE00B48B0F900000F
:1024900010F1050F02DAFFF7FDF932E0FFF79FF9BF
:1024A0002FE00648B0F90000052817DDFFF73AFADB
:1024B00027E01FE091000020000000200200002023
:1024C00082000020040000209200002083000020F1
:1024D000930000206800002094000020FE48B0F91E
:1024E000000010F1050F02DAFFF72EFA09E0FFF7FE
:1024F00076F906E0FFF773F9F8480078401CF749D1
:10250000087026E0F648008801280AD1F2480088C1
:10251000012806D1FEF707FAF0480078401CEF4981
:10252000087016E0FEF732FAEC480078401CEB49E0
:1025300008700EE011E008E0FEF75BFA0120E949BF
:1025400008700020E549087003E00020E3490870A6
:1025500000BF00BF0020E449087010BD10B5E3487B
:10256000007820B1012811D002280ED1FCE3002010
:10257000DF490870DF484078DF490870DD4880781F
:10258000DE4908700120D9490870F4E3DA48007880
:10259000312878D1D9480078322875D1D4480078CC
:1025A000072872D2DFE800F004192D42566B820032
:1025B000FFF7A6F940F2AA5001F0E0FEFFF70FF98D
:1025C000012001F0E7FEFEF742FDCD490860C84852
:1025D0000078401CC649087084E00920FEF7AAFB79
:1025E00001E0FFF761FAC74800780028F9D0FEF74C
:1025F0002EFDC3490860BE480078401CBC490870E5
:1026000070E0FFF759F940F2AA5001F0B7FEFFF76A
:10261000E6F8012001F0BEFEFEF719FDB84908609A
:10262000B3480078401CB24908705BE00920FEF70F
:1026300081FB01E0FFF796FAB34800780028F9D053
:10264000FEF705FDAE490860A9480078401CA8497E
:10265000087047E0FFF730F94FF4C86001F08EFED4
:10266000FFF7BDF8012001F095FEFEF7F0FCA4494C
:1026700008609F480078401C9D49087000BF0920F1
:10268000FEF758FB04E0D5E02DE024E0FFF7C8FAA0
:102690009E4800780028F9D0FEF7D9FC98490860D8
:1026A00093480078401C924908701BE0FFF728F916
:1026B00040F6B83001F062FEFFF791F8012001F01A
:1026C00069FEFEF7C4FC8E49086089480078401C0A
:1026D0008749087006E001208D490870022083496F
:1026E000087000BF3FE3854800783328FAD180485E
:1026F0000078072870D2DFE800F004192D42566BED
:102700008000FFF7FDF840F2AA5001F037FEFFF716
:1027100066F8012001F03EFEFEF799FC784908605A
:1027200073480078401C7249087082E00920FEF767
:1027300001FB01E0FFF7B8F9724800780028F9D0F2
:10274000FEF785FC6E49086069480078401C6849BE
:1027500008706EE0FFF7B0F840F6B83001F00EFEFA
:10276000FFF73DF8012001F015FEFEF770FC64490B
:1027700008605F480078401C5D49087059E00920F6
:10278000FEF7D8FA01E0FFF7EDF95F48007800287E
:10279000F9D0FEF75CFC5A49086055480078401CA7
:1027A0005349087045E0FFF7ABF84FF4C86001F0FB
:1027B000E5FDFFF714F8012001F0ECFDFEF747FC02
:1027C0004F4908604A480078401C4949087030E089
:1027D0000920FEF7AFFA02E024E0FFF721FA4B48A8
:1027E00000780028F9D0FEF732FC454908604048DF
:1027F0000078401C3E4908701BE0FFF781F840F26A
:10280000AA5001F0BBFDFEF7EAFF012001F0C2FD76
:10281000FEF71DFC3A49086035480078401C3449F1
:10282000087006E001203A49087002202F4908701C
:1028300000BF98E23048007832284CD12F48007809
:10284000312867D12A480078062877D2DFE800F0DF
:1028500003172C40778B0920FEF76CFA01E0FFF795
:1028600023F9284800780028F9D0FEF7F0FB244926
:1028700008601F480078401C1D4908708FE0FFF772
:102880003FF840F2AA5001F079FDFEF7A8FF0120C1
:1028900001F080FDFEF7DBFB194908601448007861
:1028A000401C134908707AE00920FEF743FA01E062
:1028B000FFF758F9144800780028F9D0FEF7C7FB55
:1028C0000F4908600A480078401C0949087000BF99
:1028D000FEF7F2FF1FE0F5E0020000209400002068
:1028E0000000002087000020040000205400002089
:1028F0005C000020A80000205D0000205E00002099
:10290000580000207D0000207E0000207F00002075
:102910007C00002044E040F6B83001F02FFDFEF7C7
:102920005EFF012001F036FDFEF791FBFE490860D5
:10293000FE480078401CFD49087030E028E009207E
:10294000FEF7F8F901E0FFF76BF9F9480078002885
:10295000F9D0FEF77CFBF4490860F4480078401C8D
:10296000F249087000BFFEF7CBFF4FF4C86001F0DA
:1029700005FDFEF734FF012001F00CFDFEF767FBBB
:10298000E9490860E9480078401CE849087006E019
:102990000120E84908700220E749087000BFE2E121
:1029A000E64800783328FAD1E048007806287DD23E
:1029B000DFE800F003172C4055690920FEF7BAF94B
:1029C00001E0FFF771F8DE4800780028F9D0FEF743
:1029D0003EFBD5490860D5480078401CD3490870B3
:1029E0006FE0FEF769FF4FF4C86001F0C7FCFEF727
:1029F000F6FE012001F0CEFCFEF729FBCA49086073
:102A0000CA480078401CC94908705AE00920FEF7FE
:102A100091F901E0FFF7A6F8CA4800780028F9D03C
:102A2000FEF715FBC0490860C0480078401CBF494C
:102A3000087046E0FEF764FF40F6B83001F09EFCF7
:102A4000FEF7CDFE012001F0A5FCFEF700FBB64924
:102A50000860B6480078401CB449087031E009208D
:102A6000FEF768F901E0FFF7DBF8B14800780028CD
:102A7000F9D0FEF7ECFAAC490860AC480078401C8D
:102A8000AA4908701DE0FEF717FF4FF4C86001F077
:102A900075FCFEF7A4FE012001F07CFCFEF7D7FADE
:102AA000A1490860A1480078401C00E002E09F496D
:102AB000087006E001209F49087002209E490870B6
:102AC00000BF50E1A04800783328FAD19B48007835
:102AD00031286FD19548007806286CD2DFE800F0E5
:102AE00003182C41556CFEF7E7FE4FF4C86001F067
:102AF00045FCFEF774FE012001F04CFCFEF7A7FA3E
:102B00008949086089480078401C884908706EE04F
:102B10000920FEF70FF901E0FEF7C6FF88480078AC
:102B20000028F9D0FEF793FA7F4908607F480078C3
:102B3000401C7E4908705AE0FEF7E2FE40F6B830CD
:102B400001F01CFCFEF74BFE012001F023FCFEF718
:102B50007EFA7549086075480078401C7349087012
:102B600045E00920FEF7E6F801E0FEF7FBFF7548B7
:102B700000780028F9D0FEF76AFA6B4908606B48C4
:102B80000078401C6949087031E0FEF795FE40F27C
:102B9000AA5001F0F3FBFEF722FE012001F0FAFB40
:102BA000FEF755FA6049086060480078401C5F49AC
:102BB00008701CE01CE013E00920FEF7BBF801E000
:102BC000FFF72EF85A4800780028F9D0FEF73FFAB0
:102BD0005549086055480078401C5449087006E083
:102BE00001205449087002205349087000BFBAE020
:102BF000524800783228FAD14C480078072870D221
:102C0000DFE800F004192D42566B8000FEF754FEF9
:102C10004FF4C86001F0B2FBFEF7E1FD012001F0C6
:102C2000B9FBFEF714FA4049086040480078401CA0
:102C30003E49087096E00920FEF77CF801E0FEF7B7
:102C400033FF3F4800780028F9D0FEF700FA3649F4
:102C5000086036480078401C3449087082E0FEF76E
:102C60004FFE40F2AA5001F089FBFEF7B8FD0120AB
:102C700001F090FBFEF7EBF92B4908602B48007838
:102C8000401C2A4908706DE00920FEF753F801E066
:102C9000FEF768FF2B4800780028F9D0FEF7D7F937
:102CA0002149086021480078401C2049087059E0FB
:102CB000FEF726FE40F2AA5001F060FBFEF78FFD02
:102CC000012001F067FBFEF7C2F9174908601748B9
:102CD0000078401C1549087044E00920FEF72AF8E6
:102CE00002E038E0FEF79CFF114800780028F9D098
:102CF000FEF7ADF90C4908600C480078401C0B4900
:102D000008702FE0FEF7D8FD40F6B83001F036FB32
:102D1000FEF765FD012001F03DFBFEF798F9024941
:102D200008600248007812E0580000205C00002093
:102D30007F0000207C000020540000205E00002066
:102D40007D0000207E0000205D0000200CE0401C83
:102D5000FD49087006E00120FC4908700220FC498A
:102D6000087000BF00BF06E00020F949087001208C
:102D7000F649087000BF00BF10BD10B5F4480078D8
:102D800020B1012811D002280ED1E4E30020EE4941
:102D90000870F0484078F0490870EE488078EF49B4
:102DA00008700120EA490870DCE3EB48007831281C
:102DB00078D1EA480078322875D1E34800780728AE
:102DC00072D2DFE800F004192D42566B8200FEF744
:102DD00085FD40F2AA5001F0D1FAFEF700FD012076
:102DE00001F0D8FAFEF733F9DD490860D6480078DB
:102DF000401CD549087084E00920FDF79BFF01E0E5
:102E0000FEF798FFD74800780028F9D0FEF71FF9A1
:102E1000D3490860CC480078401CCB49087070E06A
:102E2000FEF738FD40F2AA5001F0A8FAFEF7D7FCF1
:102E3000012001F0AFFAFEF70AF9C9490860C2485B
:102E40000078401CC04908705BE00920FDF772FF64
:102E500001E0FEF787FEC44800780028F9D0FEF7AD
:102E6000F6F8BF490860B8480078401CB6490870B9
:102E700047E0FEF70FFD4FF4C86001F07FFAFEF760
:102E8000AEFC012001F086FAFEF7E1F8B4490860D3
:102E9000AD480078401CAC49087000BF0920FDF720
:102EA00049FF04E0D5E02DE024E0FEF7B9FEAF488D
:102EB00000780028F9D0FEF7CAF8A9490860A248AE
:102EC0000078401CA04908701BE0FEF707FD40F6A3
:102ED000B83001F053FAFEF782FC012001F05AFAF3
:102EE000FEF7B5F89E49086097480078401C96495F
:102EF000087006E001209E4908700220944908707D
:102F000000BF27E3954800783328FAD18E4800782F
:102F1000072870D2DFE800F004192D42566B8000BC
:102F2000FEF7DCFC40F2AA5001F028FAFEF757FC4D
:102F3000012001F02FFAFEF78AF8894908608248DB
:102F40000078401C8049087082E00920FDF7F2FEFD
:102F500001E0FEF7EFFE834800780028F9D0FEF785
:102F600076F87F49086078480078401C76490870F8
:102F70006EE0FEF78FFC40F6B83001F0FFF9FEF787
:102F80002EFC012001F006FAFEF761F87449086092
:102F90006D480078401C6C49087059E00920FDF725
:102FA000C9FE01E0FEF724FF724800780028F9D03E
:102FB000FEF74DF86A49086063480078401C624992
:102FC000087045E0FEF78AFC4FF4C86001F0D6F9BE
:102FD000FEF705FC012001F0DDF9FEF738F8604945
:102FE000086059480078401C5749087030E00920B3
:102FF000FDF7A0FE02E024E0FEF758FF5E480078EF
:103000000028F9D0FEF723F8554908604E480078AB
:10301000401C4D4908701BE0FEF760FC40F2AA50CE
:1030200001F0ACF9FEF7DBFB012001F0B3F9FEF78C
:103030000EF84B49086044480078401C424908702B
:1030400006E001204A49087002204149087000BF8B
:1030500080E241480078322873D140480078312816
:1030600070D13948007806286DD2DFE800F00317E8
:103070002C4055690920FDF75DFE01E0FEF75AFE80
:10308000384800780028F9D0FDF7E1FF344908609E
:103090002D480078401C2C4908708BE0FEF71EFC80
:1030A00040F2AA5001F06AF9FEF799FB012001F005
:1030B00071F9FDF7CCFF2A49086023480078401CCD
:1030C0002149087076E00920FDF734FE01E0FEF7A3
:1030D0008FFE284800780028F9D0FDF7B8FF204976
:1030E000086019480078401C1749087000BFFEF7B7
:1030F000D1FB40F6B83001F041F9FEF770FB01203A
:1031000001F048F9FDF7A3FF154908600E48007863
:10311000401C0D4908704DE00920FDF70BFE01E051
:10312000FEF7C4FE144800780028F9D0FDF78FFFA1
:103130000B49086004480078401C0349087000BF30
:103140001CE0CAE037E02EE05C0000207C0000209C
:1031500054000020A80000205D0000205E00002038
:1031600058000020840000207E0000207F00002006
:103170006B0000208500002086000020FEF7AEFBDB
:103180004FF4C86001F0FAF8FEF729FB012001F0C6
:1031900001F9FDF75CFFF9490860F9480078401C27
:1031A000F749087006E00120F64908700220F64948
:1031B000087000BFCEE1F54800783328FAD1F04816
:1031C000007806287ED2DFE800F003172C4055690E
:1031D0000920FDF7AFFD01E0FEF7ACFDEC480078FB
:1031E0000028F9D0FDF733FFE4490860E44800788F
:1031F000401CE34908706FE0FEF74CFB4FF4C860D9
:1032000001F0BCF8FEF7EBFA012001F0C3F8FDF77E
:103210001EFFDA490860DA480078401CD849087077
:103220005AE00920FDF786FD01E0FEF7E1FDD948EF
:1032300000780028F9D0FDF70AFFD0490860D0488F
:103240000078401CCE49087046E0FEF747FB40F688
:10325000B83001F093F8FEF7C2FA012001F09AF8B5
:10326000FDF7F5FEC5490860C5480078401CC44913
:10327000087031E00920FDF75DFD01E0FEF716FE64
:10328000C54800780028F9D0FDF7E1FEBB49086089
:10329000BB480078401CBA4908701DE0FEF7FAFAF6
:1032A0004FF4C86001F06AF8FEF799FA012001F0C6
:1032B00071F8FDF7CCFEB1490860B1480078401CB8
:1032C000AF4900E001E0087006E00120AD49087058
:1032D0000220AD49087000BF3CE1B04800783328B7
:1032E000FAD1AA48007831286FD1A548007806287D
:1032F0006CD2DFE800F003182C41556CFEF7CAFAD7
:103300004FF4C86001F03AF8FEF769FA012001F0C5
:1033100041F8FDF79CFE9949086099480078401CE7
:10332000974908706EE00920FDF704FD01E0FEF703
:1033300001FD974800780028F9D0FDF788FE8F49F5
:1033400008608F480078401C8D4908705AE0FEF7ED
:10335000C5FA40F6B83001F011F8FEF740FA012046
:1033600001F018F8FDF773FE84490860844800787E
:10337000401C8349087045E00920FDF7DBFC01E0B3
:10338000FEF736FD834800780028F9D0FDF75FFE90
:103390007A4908607A480078401C7949087031E021
:1033A000FEF778FA40F2AA5000F0E8FFFEF717FAAD
:1033B000012000F0EFFFFDF74AFE704908607048F9
:1033C0000078401C6E4908701CE01CE013E00920E6
:1033D000FDF7B0FC01E0FEF769FD6F4800780028BA
:1033E000F9D0FDF734FE6549086065480078401C57
:1033F0006349087006E001206249087002206249B2
:10340000087000BFA6E0614800783228FAD15C4815
:103410000078072870D2DFE800F004192D42566BBF
:103420008000FEF737FA4FF4C86000F0A7FFFEF700
:10343000D6F9012000F0AEFFFDF709FE4F49086004
:103440004F480078401C4E49087082E00920FDF783
:1034500071FC01E0FEF76EFC4D4800780028F9D0C1
:10346000FDF7F5FD4549086045480078401C444992
:1034700008706EE0FEF732FA40F2AA5000F07EFFCC
:10348000FEF7ADF9012000F085FFFDF7E0FD3B49B7
:1034900008603B480078401C3949087059E0092011
:1034A000FDF748FC01E0FEF7A3FC3A48007800284D
:1034B000F9D0FDF7CCFD3149086031480078401C57
:1034C0002F49087045E0FEF709FA40F2AA5000F0D3
:1034D00055FFFEF784F9012000F05CFFFDF7B7FD12
:1034E0002649086026480078401C2549087030E0CD
:1034F0000920FDF71FFC02E024E0FEF7D7FC264878
:1035000000780028F9D0FDF7A2FD1C4908601C488E
:103510000078401C1A4908701BE0FEF7BBF940F622
:10352000B83000F02BFFFEF75AF9012000F032FF0F
:10353000FDF78DFD1149086011480078401C1049C5
:10354000087006E001200F49087002200E4908703B
:1035500000BF00BF06E000200B49087001200949A8
:10356000087000BF00BF10BD10B50D480078C8B18D
:10357000012826D0022823D150E300005800002063
:103580005C0000206B000020540000205E00002042
:103590008400002085000020860000205D000020BF
:1035A000550000200020FB490870FB484078FB498B
:1035B0000870F9488078FA4908700120F9490870C4
:1035C00033E3F648007831287ED1F5480078322878
:1035D0007BD1F0480078062879D2DFE800F00314A8
:1035E000293A4F6001E0FEF7BFFCEF480078002861
:1035F000F9D0FDF72CFDED490860E6480078401C45
:10360000E44908706AE0FEF757F94FF4C86000F02B
:10361000B5FEFEF7E4F8012000F0BCFEFDF717FD53
:10362000E2490860DB480078401CDA49087055E040
:1036300001E0FEF7F7FCDE4800780028F9D0FDF73E
:1036400006FDDA490860D3480078401CD14908706B
:1036500044E0FEF731F94FF4C86000F08FFEFEF74A
:10366000BEF8012000F096FEFDF7F1FCCF4908609E
:10367000C8480078401CC74908702FE001E0FEF7F9
:103680004CFDCC4800780028F9D0FDF7E0FCC74994
:103690000860C0480078401CBE4908701EE0FEF774
:1036A0002FF94FF4C86000F069FEFEF798F801208A
:1036B00000F070FEFDF7CBFCBC490860B54800780F
:1036C000401CB449087009E07BE008E0FFE70120F6
:1036D000B94908700220B349087000BF9DE2B048A4
:1036E00000783328FAD1AB480078052861D2DFE8AA
:1036F00000F00314293A4F0001E0FEF735FCAA4818
:1037000000780028F9D0FDF7A2FCA8490860A1487C
:103710000078401C9F49087052E0FEF7CDF840F653
:103720004E4000F02BFEFEF75AF8012000F032FE6A
:10373000FDF78DFC9D49086096480078401C95492E
:1037400008703DE001E0FEF76DFC99480078002824
:10375000F9D0FDF77CFC954908608E480078401C44
:103760008C4908702CE0FEF7CBF84FF4C86000F0ED
:1037700005FEFEF734F8012000F00CFEFDF767FCB3
:103780008A49086083480078401C8249087017E025
:1037900001E0FEF7C2FC874800780028F9D0FDF769
:1037A00056FC824908607B480078401C79490870C3
:1037B00006E001208049087002208049087000BF9F
:1037C0002BE27648007832287ED17548007831287F
:1037D0007BD17048007806287AD2DFE800F0031425
:1037E000293A4F6001E0FEF7BFFB6F4800780028E0
:1037F000F9D0FDF72CFC6D49086066480078401C44
:10380000644908706BE0FEF77BF84FF4C86000F085
:10381000B5FDFDF7E4FF012000F0BCFDFDF717FC4E
:10382000624908605B480078401C5A49087056E0BD
:1038300001E0FEF7F7FB5E4800780028F9D0FDF7BD
:1038400006FC5A49086053480078401C51490870EA
:1038500045E0FEF731F840F64E4000F08FFDFDF7F1
:10386000BEFF012000F096FDFDF7F1FB4F49086017
:1038700048480078401C4749087000BF01E0FEF747
:103880004CFC4C4800780028F9D0FDF7E0FB474994
:10389000086040480078401C3E4908701FE0FEF771
:1038A0002FF84FF4C86000F069FDFDF798FF012084
:1038B00000F070FDFDF7CBFB3C490860354800780F
:1038C000401C3449087002E0A8E009E000E000BFB5
:1038D00001203949087002203849087000BF9CE176
:1038E0002F4800783328FAD12A480078062850D289
:1038F000DFE800F00314293A667701E0FEF734FBB5
:10390000294800780028F9D0FDF7A1FB2749086075
:1039100020480078401C1F4908707EE0FDF7CCFF6E
:103920004FF4C86000F02AFDFDF759FF012000F0B8
:1039300031FDFDF78CFB1D49086016480078401CDE
:103940001449087000BF01E0FEF76CFB18480078CE
:103950000028F9D0FDF77BFB144908600D4800787A
:10396000401C0C49087058E0FDF7CAFF40F64E4075
:1039700000F004FDFDF733FF012000F00BFDFDF723
:1039800066FB0A49086003480078401C014908703A
:1039900043E03BE05C000020A80000205D00002028
:1039A0005E0000205500002081000020580000200B
:1039B00082000020830000208000002054000020AE
:1039C00001E0FEF7AAFBFE4800780028F9D0FDF7D9
:1039D0003EFBFC490860FC480078401CFA4908702E
:1039E0001BE0FDF769FF4FF4C86000F0C7FCFDF76E
:1039F000F6FE012000F0CEFCFDF729FBF14908603E
:103A0000F1480078401CF049087006E00120EF49B9
:103A100008700220EE49087000BFFEE0ED48007813
:103A20003328FAD1EC48007831286DD1E648007887
:103A3000052861D2DFE800F00314293A4F0001E0C5
:103A4000FEF792FAE54800780028F9D0FDF7FFFA72
:103A5000DC490860DC480078401CDB49087052E013
:103A6000FDF74EFF40F64E4000F088FCFDF7B7FE34
:103A7000012000F08FFCFDF7EAFAD2490860D24835
:103A80000078401CD04908703DE001E0FEF7CAFA1A
:103A9000D34800780028F9D0FDF7D9FAC949086061
:103AA000C9480078401CC84908702CE0FDF704FFA5
:103AB0004FF4C86000F062FCFDF791FE012000F0B9
:103AC00069FCFDF7C4FABF490860BF480078401C94
:103AD000BD49087017E001E0FEF71FFBB848007809
:103AE0000028F9D0FDF7B3FAB6490860B648007867
:103AF000401CB549087006E00120B4490870022056
:103B0000B349087000BF88E0B348007832287AD102
:103B1000AD480078062878D2DFE800F00314293A8F
:103B20004F6001E0FEF720FAAC4800780028F9D099
:103B3000FDF78DFAA3490860A3480078401CA2490C
:103B4000087069E0FDF7DCFE4FF4C86000F016FC79
:103B5000FDF745FE012000F01DFCFDF778FA9949BC
:103B6000086099480078401C9749087054E001E0CB
:103B7000FEF758FA9A4800780028F9D0FDF767FA5E
:103B80009049086090480078401C8F49087043E0D5
:103B9000FDF7B6FE4FF4C86000F0F0FBFDF71FFE26
:103BA000012000F0F7FBFDF752FA864908608648CD
:103BB0000078401C844908702EE001E0FEF7ADFA61
:103BC0007F4800780028F9D0FDF741FA7D49086068
:103BD0007D480078401C7C4908701DE0FDF790FE90
:103BE0004FF4C86000F0CAFBFDF7F9FD012000F0BA
:103BF000D1FBFDF72CFA7349086073480078401C2C
:103C00007149087008E008E0FFE701206F4908707B
:103C100002206F49087000BF00BF06E000206C4919
:103C2000087001206949087000BF00BF10BD10B5C1
:103C30006C484078012864D1FDF727FD4FF44870A7
:103C400000F09CFBFDF7CBFD0920FDF773F8FEF7B4
:103C500026FB4FF4FA6000F091FB6248807802285E
:103C60002ED1FDF7CFFC4FF4487000F087FBFDF735
:103C7000B6FD0920FDF75EF8FEF711FB4FF4FA6080
:103C800000F07CFBFDF7BEFC4FF4487000F076FBC3
:103C9000FDF7A5FD0920FDF74DF8FEF700FB4FF4F9
:103CA000FA6000F06BFBFDF7F0FC4FF4487000F099
:103CB00065FBFDF794FD4FF4487000F05FFB20E0DA
:103CC0004848807803281CD1FDF79CFC4FF4C8605D
:103CD00000F054FBFDF783FD0920FDF72BF8FEF7FC
:103CE000DEFA4FF4FA6000F049FBFDF7CEFC4FF42A
:103CF000487000F043FBFDF772FD4FF4487000F090
:103D00003DFB38484078022859D1FDF768FD09206D
:103D1000FDF710F8FEF7C3FA4FF4FA6000F02EFB3F
:103D20003048807801282ED1FDF7AFFC4FF4487061
:103D300000F024FBFDF753FD0920FCF7FBFFFEF725
:103D4000AEFA4FF4FA6000F019FBFDF75BFC4FF49C
:103D5000C86000F013FBFDF742FD0920FCF7EAFF05
:103D6000FEF79DFA4FF4487000F008FBFDF78DFC5C
:103D70004FF4487000F002FBFDF731FD4FF4FA609C
:103D800000F0FCFAB1E0174880780328FAD1FDF77B
:103D900039FC4FF4487000F0F1FAFDF720FD0920DE
:103DA000FCF7C8FFFEF77BFA4FF4FA6000F0E6FA82
:103DB000FDF76BFC4FF4C86000F0E0FA14E026E079
:103DC00083000020580000205C00002080000020BC
:103DD000540000205D0000205E00002081000020D3
:103DE00082000020A8000020FDF7F9FC4FF4FA60E3
:103DF00000F0C4FAFDF706FC4FF4487000F0BEFA7C
:103E0000FDF7EDFC4FF4FA6000F0B8FA6DE0F94808
:103E10004078032869D1FDF7F5FB4FF4487000F0B6
:103E2000ADFAFDF7DCFC0920FCF784FFFEF737FA5A
:103E30004FF4FA6000F0A2FAEE488078012822D10F
:103E4000FDF723FC4FF4C86000F098FAFDF7C7FCBB
:103E50000920FCF76FFFFEF722FA4FF4FA6000F03A
:103E60008DFAFDF7CFFB4FF4487000F087FAFDF7AD
:103E7000B6FC0920FCF75EFFFEF711FA4FF4FA607A
:103E800000F07CFA31E0DB48807802282DD1FDF784
:103E9000FCFB4FF4487000F071FAFDF7A0FC09201C
:103EA000FCF748FFFEF7FBF94FF4FA6000F066FA02
:103EB000FDF7EBFB4FF4487000F060FAFDF78FFC64
:103EC0000920FCF737FFFEF7EAF94FF4FA6000F03B
:103ED00055FAFDF797FB4FF4487000F04FFAFDF7E5
:103EE0007EFC4FF4FA6000F049FA10BD10B5FBE11A
:103EF000C14800F053FDC1490870C148007800284E
:103F0000F5D0FDF70EFABF4880ED000A0020BC494D
:103F10000870BD4800781A287BD2DFE800F00D1742
:103F20002E3C515D697B95A1B6D0DCF5F4F3F2F13E
:103F3000F0EFEEEDECEBEAE90521B448FCF7C1FA4D
:103F4000B1480078401CB0490870CCE1FDF77EFC18
:103F500040F2DC5000F012FAFDF741FC012000F0C5
:103F600019FAFDF74FFB40F6B83000F007FAA64803
:103F70000078401CA4490870B5E1FDF700FB40F251
:103F8000465000F0FBF9FDF72AFC9F480078401CE2
:103F90009D490870A7E140F66E70FCF7BCFC01E09B
:103FA000FEF7E1F99A4800780028F9D041F288300C
:103FB000FCF7B1FC94480078401C9349087092E1EA
:103FC000FDF70DFC8D480078FB2804D18E48007861
:103FD000401C8D49087086E105218C48FCF771FA78
:103FE000FDF7FDFB88480078401C874908707AE19E
:103FF000FDF78EFB4FF4167000F0C0F9FDF7EFFBF4
:10400000012000F0C7F980480078401C7E49087004
:1040100069E164E19FED7F0A7A4880ED000AFDF7CF
:10402000CCFB40F64E4000F0A9F9FDF7D8FB052186
:104030007648FCF746FA012000F0ACF972480078A7
:10404000401C714908704EE105217048FCF739FAAF
:10405000FDF7C5FB6C480078401C6B49087042E1D5
:1040600005216A48FCF72DFAFDF789FA40F6FE3083
:1040700000F084F9FDF7B3FB012000F08BF96248F2
:104080000078401C604908702DE19FED620A5D4890
:1040900080ED000AFDF791FB4FF4FA6000F06EF935
:1040A00005215A48FCF70DFA012000F073F9FDF7DD
:1040B00096FB55480078401C5349087013E10521D0
:1040C0005248FCF7FEF9FDF78AFB4F480078401C88
:1040D0004D49087007E141F20400FCF71CFC09207F
:1040E000FCF728FE9FED4B0A464880ED000A0EE0E3
:1040F000F4E0E2E0D5E0C6E0B4E0A7E092E068E0FA
:104100005BE04CE037E02AE01DE0FDF72FFC424881
:1041100000780028F9D001E0FEF720FA3F48007847
:104120000028F9D001E0FFF71FFA3D480078002889
:10413000F9D005213548FCF7C4F933480078401C14
:1041400031490870CFE0FDF74AFB2C480078FA2887
:1041500004D12D480078401C2B490870C3E005218C
:104160002A48FCF7AEF9FDF73AFB27480078401CD7
:1041700025490870B7E005212448FCF7A2F941F26F
:104180008830FCF7C8FBFDF7C3FA40F6AC5000F0EE
:10419000F5F81D480078401C1B490870A3E0FDF7A6
:1041A000FAFA40F6BE2000F0E9F8FDF718FB1648D1
:1041B0000078401C1449087095E005211348FCF76D
:1041C00080F9FDF70CFB10480078401C0E49087080
:1041D00089E0FDF75AFA40F6AC5000F0CFF8FDF751
:1041E000FEFA012000F0D6F807480078401C064986
:1041F000087078E0A80000200044004096000020ED
:10420000100000201C00002095000020400000202D
:104210006800002000000000690000207C000020F1
:104220008000002001E0FDF7F0FB40480078002806
:10423000F9D001E0FEF7A1FD3D4800780028F9D053
:104240003C480078401C3B4908704CE005213A4846
:10425000FCF737F9FDF7C3FA36480078401C3549BA
:10426000087040E0FDF711FA40F6AC5000F086F817
:10427000FDF7B5FA012000F08DF82E480078401CBB
:104280002C4908702FE0FDF786FA40F6863000F0E2
:1042900075F8FDF7A4FA27480078401C25490870F6
:1042A00021E005212448FCF70CF9FDF798FA214894
:1042B0000078401C1F49087015E041F20400FCF72B
:1042C0002AFB01E0FEF7C1F81C4800780028F9D06D
:1042D00018480078401C1749087004E010BD002001
:1042E0001449087000BF00BF02E610B501E0FEF7F8
:1042F0003AF8134800780028F9D010BD14E001E026
:10430000FDF734FB0F4800780028F9D001E0FEF7F4
:1043100025F90D4800780028F9D001E0FFF724F9CD
:104320000A4800780028F9D0E9E700006A00002078
:104330006B00002095000020400000208700002036
:1043400068000020690000207C0000208000002020
:10435000A82141434FF0E0225161002191610521E4
:10436000116100BF4FF0E021096901F4803100299B
:10437000F8D004214FF0E0221161704700B50346E8
:1043800003E04FF47A70FFF7E3FF181EA3F1010377
:10439000F7D100BD10B5044603E04FF47A70FFF783
:1043A000EDFF201EA4F10104F7D110BD094880479C
:1043B00009480047FEE7FEE7FEE7FEE7FEE7FEE707
:1043C000FEE7FEE7FEE7FEE704480549054A064B1F
:1043D00070470000590300088901000828010020E7
:1043E0002807002028030020280300203249014329
:1043F000324A1160704770B5002100230F22C47843
:104400001CB32E4C246804F4E064C4F5E064C4F3E7
:104410000721C1F10404E3B20A4144789C40E1B2AF
:104420008478144021430C07210E254C05786155F2
:10443000047804F01F050124AC4005786D11AD002F
:1044400005F1E025C5F8004109E0047804F01F05F6
:104450000124AC401B4D0678761145F8264070BD0E
:10446000194A0A400243154B1B1F1A60704739B1A5
:10447000124A121D12680243104B1B1D1A6006E0FF
:104480000E4A121D126882430C4B1B1D1A607047A6
:10449000042808D14FF0E021096941F004014FF0F0
:1044A000E022116107E04FF0E021096921F00401E9
:1044B0004FF0E022116170470000FA050CED00E0BA
:1044C00000E400E080E100E080FFFF1F10B504463B
:1044D0009848844208D10121084601F002FC0021DD
:1044E000012001F0FEFB76E09348844208D10121CF
:1044F000022001F0F6FB0021022001F0F2FB6AE04D
:104500008E48844208D10121042001F0EAFB0021F9
:10451000042001F0E6FB5EE08948844208D10121D5
:10452000082001F0DEFB0021082001F0DAFB52E058
:104530008448844208D10121102001F0D2FB0021DF
:10454000102001F0CEFB46E07F48844208D10121D3
:10455000202001F0C6FB0021202001F0C2FB3AE040
:104560007A48844208D10121402001F0BAFB0021A1
:10457000402001F0B6FB2EE07548844208D10121AD
:10458000802001F0AEFB0021802001F0AAFB22E098
:104590007048844208D10121801501F0A2FB00215E
:1045A000A01501F09EFB16E06B48844208D1012162
:1045B000401501F096FB0021601501F092FB0AE026
:1045C0006648844207D10121001501F08AFB0021D1
:1045D000201501F086FB10BDF0B50A46002100232E
:1045E000002400BF3DE0012505FA01F3156805EA46
:1045F00003049C4234D105684F000326BE40B543F6
:10460000056015794E00B54006683543056015799B
:10461000012D02D01579022D16D185684F00032691
:10462000BE40B543856055794E00B5408668354338
:104630008560456801268E40B5434560456896799A
:104640008E40B6B235434560C5684F000326BE4074
:10465000B543C560D5794E00B540C6683543C560E1
:10466000491C1029BFD3F0BD4FF6FF710160002136
:10467000017141718171C171704708B54FF4803289
:104680000092009A0A430092009AC261C161009AA6
:10469000C261C2690092C269009208BD0246002050
:1046A00013690B400BB1012000E000207047014668
:1046B000086980B270470246002053690B400BB175
:1046C000012000E0002070470146486980B2704731
:1046D00001837047418370470AB1018300E0418341
:1046E00070474161704742694A4042617047F0B586
:1046F000002300244D07ED0E02FA05F3CE1000F161
:10470000200555F826504E07F70E0F26BE40B5433C
:10471000CF1000F1200646F82750CE1000F12005FA
:1047200055F8265045EA0304CE1000F1200545F85F
:104730002640F0BD00000240000402400008024094
:10474000000C024000100240001402400018024019
:10475000001C0240002002400024024000280240C9
:1047600010B50446FA48844208D10121102001F016
:10477000FCFA0021102001F0F8FA57E0F5488442D5
:1047800009D10121480401F0DFFA00214FF4003083
:1047900001F0DAFA4AE0F048844209D101218804A4
:1047A00001F0D2FA00214FF4802001F0CDFA3DE073
:1047B000EA48844209D10121C80401F0C5FA002168
:1047C0004FF4002001F0C0FA30E0E548844209D1FE
:1047D0000121080501F0B8FA00214FF4801001F022
:1047E000B3FA23E0DF48844208D10121202001F000
:1047F000BCFA0021202001F0B8FA17E0DA48844220
:1048000009D10121880701F09FFA00214FF0804073
:1048100001F09AFA0AE0D548844207D10121400507
:1048200001F092FA0021600501F08EFA10BD2DE929
:10483000FF4705460E460024A14600BFA046B089AA
:1048400000B100BF2C8A24F44054F08804432C8229
:10485000AC8941F20C608443B08831890843718986
:1048600008430443AC81AC8A24F44074B089044307
:10487000AC82684601F0F9F8B548854202D0B948E3
:10488000854202D1DDF80C9001E0DDF80890A8899E
:1048900000F4004040B109EBC90000EB0910316899
:1048A0004900B0FBF1F707E009EBC90000EB091084
:1048B00031688900B0FBF1F76420B7FBF0F0040128
:1048C0002009642101FB1078A88900F4004040B160
:1048D000322000EBC800B0FBF1F000F00700044309
:1048E00008E0322000EB08106421B0FBF1F000F08A
:1048F0000F0004432C81BDE8FF874FF4165101607F
:1049000000218180C18001810C21418100218181B0
:10491000704710B502460020108A20F470600B88A2
:104920004C8823438C882343CC882343184310822C
:1049300010BD0021018041808180C180704721B17C
:10494000828942F40052828104E082894DF6FF732D
:104950001A4082817047028B02F47F420283028BED
:104960000A430283704721B1828942F40042828166
:1049700003E08289C2F30E028281704721B1828AEC
:1049800042F40062828204E0828A4FF2FF731A408E
:1049900082827047C1F3080282807047014688888E
:1049A000C0F308007047028A4FF6F0731A40028283
:1049B000028A0A430282704721B1828942F00202D0
:1049C000828104E082894FF6FD731A40828170472C
:1049D00082894FF2FF731A40828182890A43828161
:1049E0007047028A4FF6DF731A400282028A0A4336
:1049F0000282704721B1028A42F48042028204E0BE
:104A0000028A4BF6FF731A4002827047818941F097
:104A100001018181704721B1828A42F008028282BD
:104A200004E0828A4FF6F7731A4082827047028B45
:104A3000D2B20283028B42EA01220283704721B183
:104A4000828A42F02002828204E0828A4FF6DF737B
:104A50001A408282704721B1828A42F0100282821B
:104A600004E0828A4FF6EF731A4082827047828A8E
:104A70004FF6FB731A408282828A0A438282704711
:104A800021B1828A42F00202828204E0828A4FF6D9
:104A9000FD731A40828270471AB1838A0B43838266
:104AA00002E0838A8B4383827047F0B5034600247B
:104AB00000260025002040F66A17B94200D100BF49
:104AC0001846C1F3421401F01F06012707FA06F544
:104AD000012C01D10C3004E0022C01D1103000E097
:104AE00014301AB107682F43076002E00768AF432C
:104AF0000760F0BD02460020B1F5007F00D100BF85
:104B000013880B400BB1012000E00020704701F436
:104B10000072B2F5007F00D100BFCA430280704727
:104B200070B50246002400230025002040F66A16D6
:104B3000B14200D100BFC1F3421501F01F030126AD
:104B400006FA03F3012D13D19689334017E00000D4
:104B5000001001400044004000480040004C00406C
:104B6000005000400014014000780040007C0040EC
:104B7000022D02D1168A334001E0968A33400C128E
:104B8000012606FA04F41688344013B10CB1012052
:104B900000E0002070BD10B50022002340F66A142A
:104BA000A14200D100BF0A1201249440A3B2DC4309
:104BB000048010BD10B50446FE48844208D101218E
:104BC000084601F0D2F80021012001F0CEF89DE066
:104BD000B4F1804F08D10121084601F0B5F8002159
:104BE000012001F0B1F891E0F348844208D101219D
:104BF000022001F0A9F80021022001F0A5F885E0CB
:104C0000EE48844208D10121042001F09DF80021E2
:104C1000042001F099F879E0E948844208D10121A3
:104C2000082001F091F80021082001F08DF86DE0D6
:104C3000E448844208D10121102001F085F80021C8
:104C4000102001F081F861E0DF48844208D10121A1
:104C5000202001F079F80021202001F075F855E0BE
:104C6000DA48844208D10121022001F07EF80021B7
:104C7000022001F07AF849E0D548844209D10121A7
:104C8000080401F072F800214FF4803001F06DF853
:104C90003CE0D048844209D10121480401F065F884
:104CA00000214FF4003001F060F82FE0CA48844240
:104CB00009D10121880401F058F800214FF4802027
:104CC00001F053F822E0C548844208D10121402078
:104CD00001F03AF80021402001F036F816E0C04813
:104CE000844208D10121802001F02EF8002180208B
:104CF00001F02AF80AE0BB48844207D1012180155F
:104D000001F022F80021A01501F01EF810BD0022CC
:104D10000288A84B98420ED0AC4B98420BD0B0F111
:104D2000804F08D0A44B984205D0A44B984202D0A3
:104D3000A34B984204D14FF68F731A404B881A4305
:104D4000A04B984207D0A04B984204D04FF6FF43A7
:104D50001A400B891A4302804B68C3620B88038593
:104D6000944B984202D0994B984201D18B7A03869A
:104D70000123838270474FF0FF31416000210180A1
:104D800001814180817270470185828270470A46A5
:104D9000002101884FF68F7319401143018070473D
:104DA00041627047C16270470146486A70470146D8
:104DB000088D704721B1028842F00202028004E0AF
:104DC00002884FF6FD731A400280704721B10288B5
:104DD00042F00402028004E002884FF6FB731A409E
:104DE0000280704721B1028842F08002028004E014
:104DF00002884FF67F731A400280704702884FF690
:104E0000F7731A40028002880A43028070470288C2
:104E10004FF6FF431A40028002880A43028070471F
:104E200021B1028842F00102028004E002884FF6BC
:104E3000FE731A400280704770B5002400220023E0
:104E4000058C4FF6FE7635400584028C8388048BF2
:104E50004FF68F752C40B51E2C400D882C43751EC7
:104E60002A408D892A434D882A43524DA84202D0B8
:104E7000564DA84213D14FF6F7752A40CD892A43E3
:104E80004FF6FB752A408D882A434FF6FF652B406D
:104E90004FF6FF552B400D8A2B434D8A2B438380C1
:104EA00004838D684563028470BD70B500240022C0
:104EB0000023058C4FF6EF7635400584028C8388FD
:104EC000048B48F6FF752C404FF6FF452C400D88AB
:104ED0004FF6FF7606EA05252C434FF6DF752A408C
:104EE0008D8906EA05152A434D8806EA05152A43E9
:104EF000304DA84202D0354DA8421DD14FF67F75E6
:104F00002A40CD894FF6FF7606EA05152A434FF66B
:104F1000BF752A408D8806EA05152A434FF6FF35EE
:104F20002B404FF2FF752B400D8A06EA85052B4377
:104F30004D8A06EA85052B43838004838D6885634B
:104F4000028470BD70B5002400220023058C4FF64A
:104F5000FF6635400584028C8388848B4FF68F75FD
:104F60002C404FF6FC752C400D882C434FF6FF5516
:104F70002A408D894FF6FF7606EA05252A434D889B
:104F800006EA05252A430B4DA84202D00F4DA84240
:104F900038D14FF2FF752A40CD894FF6FF7606EAE9
:104FA00005252A434FF6FF352A408D8806EA052558
:104FB0002A4319E0000001400004004000080040BE
:104FC000000C0040001000400014004000040140AC
:104FD00000400140004401400048014000180040EA
:104FE000001C0040002000404EF6FF752B404DF69F
:104FF000FF752B400D8A06EA05152B434D8A06EAFC
:1050000005152B43838084838D68C563028470BD3E
:1050100070B5002200230024058C4EF6FF76354043
:105020000584038C8488828B48F6FF752A404FF6EE
:10503000FF452A400D884FF6FF7606EA05252A43EC
:105040004DF6FF752B408D8906EA05352B434D88BB
:1050500006EA05352B43FE4DA84202D0FD4DA8427D
:1050600008D14BF6FF752C400D8A4FF6FF7606EA05
:1050700085152C43848082838D680564038470BD0C
:10508000002101804180818081608181C181018214
:105090004182704770B5034600200024184618303E
:1050A00001258D40ACB21D8CA5431D8409B1082992
:1050B0000AD100EB610005684FF68F763540056038
:1050C0000568154305600FE00D1FC5F34E05284424
:1050D000056848F6FF763540056005684FF6FF76AF
:1050E00006EA02263543056070BD4163704781635F
:1050F0007047C1637047016470470A460021018B05
:105100004FF68F7319401143018370470A460021FF
:10511000018B48F6FF7319404FF6FF7303EA022331
:105120001943018370470A460021818B4FF68F7324
:1051300019401143818370470A460021818B48F64C
:10514000FF7319404FF6FF7303EA0223194381836B
:1051500070470A460021018B4FF6F773194011433F
:10516000018370470A460021018B4FF2FF731940FB
:105170004FF6FF7303EA02231943018370470A467F
:105180000021818B4FF6F7731940114381837047DB
:105190000A460021818B4FF2FF7319404FF6FF73CF
:1051A00003EA02231943818370470A460021018BD9
:1051B0004FF6FB7319401143018370470A460021E3
:1051C000018B4FF6FF3319404FF6FF7303EA0223BA
:1051D0001943018370470A460021818B4FF6FB7308
:1051E00019401143818370470A460021818B4FF695
:1051F000FF3319404FF6FF7303EA022319438183FB
:1052000070470A460021018B4FF67F731940114306
:10521000018370470A460021018BC1F30E014FF64E
:10522000FF7303EA02231943018370470A460021F2
:10523000818B4FF67F7319401143818370470A4673
:105240000021818BC1F30E014FF6FF7303EA0223A5
:105250001943818370470A460021018C4FF6FD7384
:1052600019401143018470470A460021018C4FF612
:10527000F77319401143018470470A460021018CDD
:105280004FF6DF7319404FF6FF7303EA0213194319
:10529000018470470A460021018C4FF67F73194044
:1052A0004FF6FF7303EA02131943018470470A465D
:1052B0000021018C4FF6FF5319404FF6FF7303EAAC
:1052C00002231943018470470A460021018C4FF2E2
:1052D000FF7319404FF6FF7303EA02231943018459
:1052E00070470A460021018C4DF6FF7319404FF6B6
:1052F000FF7303EA023319430184704730B500237A
:1053000001248C40A3B2048C9C430484048C02FAD4
:1053100001F5ADB22C43048430BD30B50023042424
:105320008C40A3B2048C9C430484048C02FA01F5E3
:10533000ADB22C43048430BD828B4FF2FF331A4050
:105340008283828B4FF6FF7303EA01231A43828321
:105350007047F0B50C461546002100220026078C48
:105360004EF6FF7C07EA0C070784818B028C4FF610
:10537000FF7707EA043640F6FF4739404FF6FF77DC
:1053800007EA052739434FF6FF7707EA0337394322
:1053900045F6FF773A4046F480573A4381830284CA
:1053A000F0BD828B4FF6F3731A408283828B0A43DF
:1053B00082837047F0B50C46154600210022002676
:1053C000078C4FF6FF6C07EA0C070784818B028C71
:1053D0004FF6FF7707EA04264FF60C7739404FF671
:1053E000FF7707EA03172F4339434FF2FF573A403D
:1053F00046F480773A4381830284F0BD028B4FF2FA
:10540000FF331A400283028B4FF6FF7303EA012336
:105410001A4302837047F0B50C461546002100225E
:105420000026078C4FF6EF7C07EA0C070784018BF8
:10543000028C4FF6FF7707EA041640F6FF47394023
:105440004FF6FF7707EA033739434FF6FF7703E05C
:10545000000001400004014007EA052739434FF6E8
:105460005F773A4046F010073A4301830284F0BD6B
:10547000028B4FF6F3731A400283028B0A430283B6
:105480007047F0B50C46154600210022068C4FF6F9
:10549000FE773E400684018B028C4FF60C7631403D
:1054A0007E1C06EA03162E4331434FF6F576324052
:1054B00044F00106324301830284F0BD70B5054615
:1054C0000C46208850B92389A28861882846FFF7B6
:1054D000D8FFE1882846FFF7CBFF25E02088042885
:1054E0000AD12389A28861882846FFF794FFE188C2
:1054F0002846FFF783FF17E0208808280AD1238970
:10550000A28861882846FFF755FFE1882846FFF703
:1055100048FF09E02389A28861882846FFF719FF20
:10552000E1882846FFF708FF70BD00210180418017
:10553000012181800021C180018170472DE9F04166
:1055400005460C4600260127608808B9022600E0BF
:105550000026A088012801D1022700E00127208829
:10556000A0B92389A28861882846FFF78AFFE188CD
:105570002846FFF77DFF23893A4631462846FFF744
:105580004AFFE1882846FFF739FF13E02389A28804
:1055900061882846FFF73FFFE1882846FFF72EFF86
:1055A00023893A4631462846FFF76BFFE1882846B3
:1055B000FFF75EFFBDE8F0810146486B704701468A
:1055C000886B70470146C86B70470146086C70478E
:1055D0000A884B881A438B881A43CB881A430B8955
:1055E0001A434B891A438B891A43A0F84420704709
:1055F0000021018041808180C180018141818181C0
:10560000704731B1B0F8442042F40042A0F8442081
:1056100005E0B0F84420C2F30E02A0F84420704721
:1056200021B1828842F00402828004E082884FF631
:10563000FB731A408280704721B1828842F00102D8
:10564000828004E082884FF6FE731A4082807047A1
:105650001AB183890B43838102E083898B43838161
:1056600070478182704702460020138A0B400BB1BD
:10567000012000E000207047CA430282704730B525
:105680000246002000230024158A05EA01039589BB
:1056900005EA010413B10CB1012000E0002030BD87
:1056A000CA430282704741EA0203A0F848307047BB
:1056B0001AB183890B43838102E083898B43838101
:1056C000704721B1828842F00802828004E082881B
:1056D0004FF6F7731A408280704701894FF6F872CF
:1056E0001140018170470A46002101894FF68F73EE
:1056F000194011430181704730B504460D462946D3
:105700002046FFF7F0FF208940F00700208130BDE0
:105710002DE9F04104460D4616461F46602D06D180
:105720003B46012231462046FFF775FE05E03B4629
:10573000012231462046FFF7A4FE29462046FFF706
:10574000D2FF208940F007002081BDE8F08130B50C
:105750000C4600210189C9B24FF6FF7505EA032501
:10576000154325432943018130BD2DE9F04105460C
:105770000E4617469846002443463A463146284688
:10578000FFF7E5FF2C894FF6F870044044F007045A
:105790004FF68F70044044F070042C81BDE8F08116
:1057A000F0B504460D4616461F463B46324629468E
:1057B0002046FFF7CCFF208940F480402081F0BDD7
:1057C00082884FF68F731A40828082880A438280D3
:1057D000704702894FF6F8731A40028102890A4322
:1057E0000281704702894FF67F731A400281028955
:1057F0000A4302817047F0B50C4615461E4600214B
:10580000002200230189028B038C4FF6F877394080
:1058100021434FF6FC473A4040F201173A434FF616
:10582000DD773B404FF6FF7707EA06172F433B43F0
:10583000018102830384F0BD21B1828842F080029D
:10584000828004E082884FF67F731A40828070471E
:10585000A0F8501070470000F948006840F00100BF
:10586000F74908600020F64908310860F4480068EC
:10587000F4490840F2490860F348091D0860F348FC
:10588000EF4984310860F0481038091D0860EC4881
:10589000006820F48020EA4908600020E8490C31C3
:1058A0000860E7498C31086070470021E44A921C87
:1058B000117011460870704710B501460022002390
:1058C00000204A11012A02D1DD4C236808E0022A97
:1058D00003D1DB4C7034236802E0D94C7434236864
:1058E00001F01F02012494401C400CB1012000E093
:1058F000002010BD38B5002000900024002500BF16
:105900003120FFF7D9FF05460098401C0090009811
:10591000B0F5A04F01D0002DF2D03120FFF7CCFF21
:1059200008B1012400E00024204638BD01460020D3
:10593000C34A106820F0F80040EAC10010607047C8
:10594000C349086070470021BD4A70321170117060
:10595000012802D004280AD104E00121B84A70329B
:10596000117005E00521B64A7032117000E000BFE9
:1059700000BF7047B7490860704770B5049C41EAA2
:1059800082150126C6EB530645EA0645054345EA5E
:105990000465AB4E361D356070BDAD490866704775
:1059A000820142EA0172A64B84331A607047A8490B
:1059B0008866704710B5830143EA016343EA0273C6
:1059C0009F4C8834236010BDA14908677047A049E7
:1059D000C864704702460020994B0833186820F0CD
:1059E000EC6042EA01031843954B08331860704796
:1059F00002460020924B0833186820F0784042EAB3
:105A0000010318438E4B083318607047014600208D
:105A10008B4A0832106820F003000843106070477A
:105A200087480830006800F00C00704701460020ED
:105A3000834A0832106820F0F00008431060704775
:105A4000014600207E4A0832106820F4E0500843E6
:105A50001060704701460020794A0832106820F42F
:105A6000604040EAC10010607047F0B5002100229C
:105A70000024022500260223714F08373F6807F0F3
:105A80000C0121B1042905D0082937D105E0724F56
:105A9000076036E0714F076033E0694F3F1D3F6894
:105AA000C7F38056664F3F1D3F6807F03F036EB156
:105AB0006A4FB7FBF3F7DFF888C10CF1040CDCF890
:105AC00000C0CCF3881C07FB0CF40CE0624FB7FB62
:105AD000F3F7DFF86CC10CF1040CDCF800C0CCF378
